:100000000C9434000C9451000C9451000C94510049
:100010000C9451000C9451000C9451000C9451001C
:100020000C9451000C9451000C9451000C9451000C
:100030000C9451000C9451000C9451000C945100FC
:100040000C9451000C9451000C9451000C945100EC
:100050000C9451000C9451000C9451000C945100DC
:100060000C9451000C94510011241FBECFEFD8E026
:10007000DEBFCDBF11E0A0E0B1E0E8E2F7E002C0F2
:1000800005900D92A032B107D9F721E0A0E2B1E0CE
:1000900001C01D92A232B207E1F70E9469030C94DD
:1000A00092030C9400000E94EB028AE18A95F1F71A
:1000B00000C0109221010895811103C08091210197
:1000C00008958FEF089581110EC0683060F480911B
:1000D0002101992787FD909502C0959587956A958E
:1000E000E2F7817008958FEF0895CF93DF931F9209
:1000F000CDB7DEB781110EC0609321018EE7698311
:100100000E94F1026981862F0E9444030E943C03F1
:1001100080E001C08FEF0F90DF91CF910895CF93D2
:10012000811136C0862F90E0841B91098F3F3FEFED
:10013000930774F16150673058F5442349F15091A9
:1001400021010196332727FD3095082E01C0220F8B
:100150000A94EAF761E070E002C0660F771F4A95E3
:10016000E2F76150710901C0660F8A95EAF7C62F60
:10017000C095C5236223C62BC09321018EE70E9440
:10018000F1028C2F0E9444030E943C0380E001C0D6
:100190008FEFCF910895CF9381111FC06830E8F49D
:1001A0002091210181E090E0062E01C0880F0A9481
:1001B000EAF7442319F0C22FC82B03C0C82FC095FB
:1001C000C223C09321018EE70E94F1028C2F0E946E
:1001D00044030E943C0380E001C08FEFCF9108955B
:1001E00041E00C94CB0040E00C94CB00CF93DF9324
:1001F0001F92CDB7DEB781110BC08FE70E94F102CD
:100200000E945F03809589830E943C03898101C01D
:100210008FEF0F90DF91CF910895CF93DF931F92CF
:10022000CDB7DEB7882311F08FEF12C06830E0F74A
:1002300080E069830E94F60069818F3FA9F39927C6
:1002400087FD909502C0959587956A95E2F7817034
:100250000F90DF91CF91089562E080E00E94F0005E
:1002600000C062E080E00C94F300CF93C82F80912F
:100270002001662311F0816001C08E7F80932001F0
:10028000809120018D7F809320016091200180E08A
:100290000E947500809120018F77809320018091CA
:1002A00020018F7B80932001809120018F7D80939E
:1002B0002001809120018F7E80932001C7FF05C01F
:1002C00080912001806880932001C6FF05C0809145
:1002D0002001806480932001C5FF05C0809120012A
:1002E000806280932001C4FF05C08091200180615D
:1002F000809320016091200180E00E9475000E949F
:100300002C01809120018F77809320018091200122
:100310008F7B80932001809120018F7D809320012D
:10032000809120018F7E80932001C3FF05C08091C2
:100330002001806880932001C2FF05C080912001C8
:10034000806480932001C1FF05C0809120018062FC
:1003500080932001C0FF05C08091200180618093BF
:1003600020016091200180E00E9475000E942C0114
:100370008091200180618093200180912001806222
:1003800080932001809120018064809320018091DE
:1003900020018068809320016091200180E0CF914E
:1003A0000C947500CF93809120018E7F8093200163
:1003B000809120018260809320016091200180E083
:1003C0000E94750062E080E00E94F00000C064E0DE
:1003D00080E00E946300C82F62E080E00E94F3008A
:1003E00000C062E080E00E94F00000C064E080E0B5
:1003F0000E946300C295C07F8F70C82B62E080E0CE
:100400000E94F3008C2FCF9108950E94D20187FDA6
:10041000FCCF84E090E00197F1F70C94D201CF93E8
:10042000C82F0E94050260E08C2FCF910C943501FB
:10043000CF93C82F0E94050261E08C2FCF910C94BE
:100440003501611102C0805809C0613011F4805437
:1004500005C0623011F4805701C080530C940F0224
:100460000E94050290E0089581E00C940F02882319
:1004700021F080912001877F03C080912001886056
:10048000809320016091200180E00C94750082E04F
:100490000C940F02CF93C82F0E940502982FCA30E8
:1004A000A1F4803148F080EC890F803138F0905110
:1004B000903330F480E505C080E403C080E101C0E2
:1004C00080E08058CF910C940F028C3119F460E0D9
:1004D00080EC0EC08C3519F460E080E909C08C32E4
:1004E00019F460E080ED04C08C3621F460E080E80F
:1004F0000E9435010E94050261E08C2FCF910C947F
:100500003501CF93DF93EC018991882319F00E9484
:100510004A02FACFDF91CF910895CF93DF93FC0188
:100520008491EF012196882321F00E944A02FE0166
:10053000F7CFDF91CF910895CF93C82F0E9453003A
:10054000109220016091200180E00E947500E0E09F
:10055000FDE73197F1F7909120019062909320018F
:10056000909120019061909320016091200180E0A2
:100570000E9475000E942C01E0E0F7E23197F1F74C
:100580000E942C01E0E8F0E03197F1F70E942C0185
:10059000E0E8F0E03197F1F7909120019F7E909391
:1005A00020016091200180E00E9475000E942C01D2
:1005B000E0E8F0E03197F1F788E20E940F0288E06E
:1005C0000E940F020E94340286E00E940F028C2FCC
:1005D000CF910C940F021092B90080E28093B80082
:1005E000089594EA9093BC009091BC0097FFFCCFD3
:1005F0009091B900987F983021F0903111F081E00E
:1006000008958093BB0084E88093BC008091BC0077
:1006100087FFFCCF8091B900887F883111F080344A
:1006200071F780E0089524EA34E844E92093BC009F
:100630009091BC0097FFFCCF9091B900987F9830C3
:1006400011F0903199F78093BB003093BC009091EA
:10065000BC0097FFFCCF9091B900987F903211F0C9
:10066000983539F44093BC009091BC0094FDFCCFC8
:10067000DDCF08950C94F10284E98093BC00809151
:10068000BC0084FDFCCF08958093BB0084E8809378
:10069000BC008091BC0087FFFCCF9091B900987F8F
:1006A00081E0983209F480E0089584EC8093BC00E6
:1006B0008091BC0087FFFCCF8091BB00089584E847
:1006C0008093BC008091BC0087FFFCCF8091BB0071
:1006D00008958DE00E949C020E94470280E00E94E3
:1006E000370260E080E00E94210280E091E00E94F9
:1006F000810261E080E00E94210288E091E00E9496
:10070000810262E080E00E94210280E191E00E948B
:10071000810263E080E00E94210288E191E00E9472
:080720008102FFCFF894FFCF26
:100728004C696E69612031004C696E696120320044
:100738004C696E69612033004C696E696120340030
:00000001FF
