:100000000C9434000C9451000C9451000C94510049
:100010000C9451000C9451000C9451000C9451001C
:100020000C9451000C9451000C9451000C94340524
:100030000C9451000C9451000C9451000C945100FC
:100040000C9451000C9451000C9451000C945100EC
:100050000C9451000C9451000C9451000C945100DC
:100060000C9451000C94510011241FBECFEFD8E026
:10007000DEBFCDBF11E0A0E0B1E0EEE0F6E102C0EE
:1000800005900D92A037B107D9F721E0A0E7B1E0C4
:1000900001C01D92A638B207E1F70E94DB060C945E
:1000A000050B0C9400000E94EB028AE18A95F1F79F
:1000B00000C0109273010895811103C080917301F3
:1000C00008958FEF089581110EC0683060F480911B
:1000D0007301992787FD909502C0959587956A953C
:1000E000E2F7817008958FEF0895CF93DF931F9209
:1000F000CDB7DEB781110EC0609373018EE76983BF
:100100000E94F1026981862F0E9444030E943C03F1
:1001100080E001C08FEF0F90DF91CF910895CF93D2
:10012000811136C0862F90E0841B91098F3F3FEFED
:10013000930774F16150673058F5442349F15091A9
:1001400073010196332727FD3095082E01C0220F39
:100150000A94EAF761E070E002C0660F771F4A95E3
:10016000E2F76150710901C0660F8A95EAF7C62F60
:10017000C095C5236223C62BC09373018EE70E94EE
:10018000F1028C2F0E9444030E943C0380E001C0D6
:100190008FEFCF910895CF9381111FC06830E8F49D
:1001A0002091730181E090E0062E01C0880F0A942F
:1001B000EAF7442319F0C22FC82B03C0C82FC095FB
:1001C000C223C09373018EE70E94F1028C2F0E941C
:1001D00044030E943C0380E001C08FEFCF9108955B
:1001E00041E00C94CB0040E00C94CB00CF93DF9324
:1001F0001F92CDB7DEB781110BC08FE70E94F102CD
:100200000E945F03809589830E943C03898101C01D
:100210008FEF0F90DF91CF910895CF93DF931F92CF
:10022000CDB7DEB7882311F08FEF12C06830E0F74A
:1002300080E069830E94F60069818F3FA9F39927C6
:1002400087FD909502C0959587956A95E2F7817034
:100250000F90DF91CF91089562E080E00E94F0005E
:1002600000C062E080E00C94F300CF93C82F80912F
:100270007001662311F0816001C08E7F8093700150
:10028000809170018D7F809370016091700180E09A
:100290000E947500809170018F778093700180912A
:1002A00070018F7B80937001809170018F7D8093AE
:1002B0007001809170018F7E80937001C7FF05C02F
:1002C00080917001806880937001C6FF05C08091A5
:1002D0007001806480937001C5FF05C0809170013A
:1002E000806280937001C4FF05C0809170018061BD
:1002F000809370016091700180E00E9475000E94FF
:100300002C01809170018F77809370018091700132
:100310008F7B80937001809170018F7D809370013D
:10032000809170018F7E80937001C3FF05C0809122
:100330007001806880937001C2FF05C080917001D8
:10034000806480937001C1FF05C08091700180625C
:1003500080937001C0FF05C080917001806180931F
:1003600070016091700180E00E9475000E942C0174
:100370008091700180618093700180917001806232
:1003800080937001809170018064809370018091EE
:1003900070018068809370016091700180E0CF915E
:1003A0000C947500CF93809170018E7F80937001C3
:1003B000809170018260809370016091700180E093
:1003C0000E94750062E080E00E94F00000C064E0DE
:1003D00080E00E946300C82F62E080E00E94F3008A
:1003E00000C062E080E00E94F00000C064E080E0B5
:1003F0000E946300C295C07F8F70C82B62E080E0CE
:100400000E94F3008C2FCF9108950E94D20187FDA6
:10041000FCCF84E090E00197F1F70C94D201CF93E8
:10042000C82F0E94050260E08C2FCF910C943501FB
:10043000CF93C82F0E94050261E08C2FCF910C94BE
:100440003501611102C0805809C0613011F4805437
:1004500005C0623011F48C5601C08C520C940F020E
:100460000E94050290E0089581E00C940F02882319
:1004700021F080917001877F03C0809170018860B6
:10048000809370016091700180E00C94750082E0AF
:100490000C940F02CF93C82F0E940502982FCA30E8
:1004A000A1F4843148F080EC890F843138F0945104
:1004B0009C3230F484E505C080E403C084E101C0CF
:1004C00080E08058CF910C940F02843119F460E0E1
:1004D00080EC0EC0843519F460E084E909C08832EC
:1004E00019F460E084ED04C0883621F460E080E80F
:1004F0000E9435010E94050261E08C2FCF910C947F
:100500003501CF93DF93EC018991882319F00E9484
:100510004A02FACFDF91CF910895CF93DF93FC0188
:100520008491EF012196882321F00E944A02FE0166
:10053000F7CFDF91CF910895CF93C82F0E9453003A
:10054000109270016091700180E00E947500E0E0FF
:10055000FDE73197F1F790917001906290937001EF
:10056000909170019061909370016091700180E0B2
:100570000E9475000E942C01E0E0F7E23197F1F74C
:100580000E942C01E0E8F0E03197F1F70E942C0185
:10059000E0E8F0E03197F1F7909170019F7E909341
:1005A00070016091700180E00E9475000E942C0132
:1005B000E0E8F0E03197F1F788E20E940F0288E06E
:1005C0000E940F020E94340286E00E940F028C2FCC
:1005D000CF910C940F021092B90080E28093B80082
:1005E000089594EA9093BC009091BC0097FFFCCFD3
:1005F0009091B900987F983021F0903111F081E00E
:1006000008958093BB0084E88093BC008091BC0077
:1006100087FFFCCF8091B900887F883111F080344A
:1006200071F780E0089524EA34E844E92093BC009F
:100630009091BC0097FFFCCF9091B900987F9830C3
:1006400011F0903199F78093BB003093BC009091EA
:10065000BC0097FFFCCF9091B900987F903211F0C9
:10066000983539F44093BC009091BC0094FDFCCFC8
:10067000DDCF08950C94F10284E98093BC00809151
:10068000BC0084FDFCCF08958093BB0084E8809378
:10069000BC008091BC0087FFFCCF9091B900987F8F
:1006A00081E0983209F480E0089584EC8093BC00E6
:1006B0008091BC0087FFFCCF8091BB00089584E847
:1006C0008093BC008091BC0087FFFCCF8091BB0071
:1006D00008950E94340260E080E00E94210286E0DA
:1006E00091E00E9481022FEF89E698E1215080403D
:1006F0009040E1F700C000000C943402CF92DF92EA
:10070000EF92FF920F931F93CF93DF93EC018B0136
:100710006A0179018FE090E00E940207FC01D80194
:10072000AA0FBB1FAC0FBD1F1696FC93EE93159737
:1007300081E08283D182C082D483C383F686E5863A
:10074000CF01DF91CF911F910F91FF90EF90DF903C
:10075000CF900895FC0120E030E0A581B68110978C
:1007600049F012964C91413029F430937201209354
:10077000710108952F5F3F4F32962430310569F79C
:10078000FC0180E090E0A581B681109749F01296B7
:100790002C91213029F49093720180937101089576
:1007A000019632968430910571F708950E943402C3
:1007B000E0918001F091810180917101909172012D
:1007C000880F991FE80FF91F858196819093810109
:1007D000809380010C94AA030E943402E09180016E
:1007E000F0918101838194819093810180938001B4
:1007F0000C94AA0360917101709172019B012F5FAB
:100800003F4F660F771F680F791F40E050E024309C
:10081000310584F4FB01E40FF51F0780F085E02D1E
:10082000309719F0E281E13081F02F5F3F4F4E5F4A
:100830005F4FEDCFFC0120E030E0A581B68110973D
:1008400049F012968C91813029F4309372012093F3
:10085000710108952F5F3F4F32962430310569F7BB
:10086000089560917101709172019B0121503109CD
:10087000660F771F680F791F40E050E037FD10C00A
:10088000FB01E40FF51F0380F481E02D309719F090
:10089000E281E13081F02150310942505109EECF1F
:1008A000FC0123E030E0A385B485109749F012964F
:1008B0008C91813029F43093720120937101089555
:1008C0002150310932972F3F8FEF380761F7089594
:1008D0006091710180E00E9421028FE091E00C9410
:1008E00081026091710180E00E94210281E491E027
:1008F0000C9481029F938F9381E191E09F938F935A
:1009000082E491E09F938F930E9434080F900F90A0
:100910000F900F900F900F9082E491E0089521E0E6
:1009200030E0062E01C0220F0A94EAF7822B0895C8
:1009300090E002C0959587956A95E2F78095817061
:100940000895EF92FF920F931F93CF93DF938FE061
:1009500090E00E9402079093750180937401909338
:1009600081018093800124E131E0FC013183208307
:1009700029E633E049E151E060E070E00E947E0347
:1009800026ED33E045E251E061E070E080917401D2
:10099000909175010E947E03EC0129E633E04BE261
:1009A00051E062E070E080917401909175010E94C5
:1009B0007E0329E633E045E351E060E070E0CE01DC
:1009C0000E947E037C0129E633E043E451E061E0CC
:1009D00070E0CE010E947E038C012CEE33E041E5F5
:1009E00051E063E070E0CE010E947E03F7011282C5
:1009F000F80112828CE00E949C020E94470280E073
:100A00000E9437020E9434028FEF84B98BEF8AB9BB
:100A100084B95F9A5E9A289A1092760110927701B3
:100A2000109278011092790110927A0110927B0154
:100A300010927C0110927D01EFE6F0E080818260EF
:100A40008083E1E8F0E080818C60808389EF90E032
:100A500090938900809388007894DF91CF911F91C3
:100A60000F91FF90EF9008951F920F920FB60F9283
:100A700011242F938F939F93AF93BF93789480917A
:100A8000760190917701A0917801B091790101965A
:100A9000A11DB11D8093760190937701A0937801F9
:100AA000B09379018091760190917701A0917801BE
:100AB000B09179018D379105A105B10580F11092B2
:100AC000760110927701109278011092790180914D
:100AD0007A0190917B01A0917C01B0917D010196FA
:100AE000A11DB11D80937A0190937B01A0937C019D
:100AF000B0937D0180917A0190917B01A0917C015E
:100B0000B0917D0180389145A140B10540F010922F
:100B10007A0110927B0110927C0110927D01BF91AD
:100B2000AF919F918F912F910F900FBE0F901F90BB
:100B300018958F929F92AF92BF92CF92DF92EF92D1
:100B4000FF920F931F93CF93DF938C016B015A0198
:100B5000EC0109900020E9F72197C81BD90BC617B3
:100B6000D707CCF4CB0101960E9402074C01E12C7F
:100B7000F12CCC1ADD0AEC14FD0444F4B501C401D7
:100B80000E9429088FEFE81AF80AF5CFB801C401CE
:100B90000E942908C401DF91CF911F910F91FF900E
:100BA000EF90DF90CF90BF90AF909F908F9008957F
:100BB0004F925F926F927F928F929F92AF92BF926D
:100BC000CF92DF92EF92FF920F931F93CF93DF9319
:100BD000CDB7DEB764970FB6F894DEBF0FBECDBFBA
:100BE00060917A0170917B0180917C0190917D01EF
:100BF000ECE34E2E512C612C712CA30192010E942A
:100C0000E0066B017C0160917A0170917B0180911B
:100C10007C0190917D0180907A0190907B01A09061
:100C20007C01B0907D01DF92CF926C197D098E0915
:100C30009F09A30192010E94E006CA01B901A30124
:100C400092010E94E0067F936F938C189D08AE0876
:100C5000BF08C501B40120E13EE040E050E00E9441
:100C6000E0063F932F9388E591E09F938F938E0149
:100C70000F5F1F4F1F930F930E94340863E080E0C3
:100C80000E942102C8010E9481020FB6F894DEBFC3
:100C90000FBECDBF64960FB6F894DEBF0FBECDBFBA
:100CA000DF91CF911F910F91FF90EF90DF90CF9048
:100CB000BF90AF909F908F907F906F905F904F907C
:100CC00008950F931F93CF93DF930E94D8050E943E
:100CD0006804C0E0D0E0E0918001F0918101CE0194
:100CE000880F991FE80FF91F05811681011511055D
:100CF00049F06C2F82E00E942102F80180819181ED
:100D00000E9481022196C430D10529F789B190E073
:100D1000880F892F881F990B892B89F4FFE728E317
:100D200081E0F15020408040E1F700C000000E94C7
:100D3000710480918001909181010E94FA034E9983
:100D400011C09FE7E8E3F1E09150E040F040E1F7A7
:100D500000C000000E947104809180019091810187
:100D60000E943104189922C02FE788E391E02150B6
:100D700080409040E1F700C00000E0918001F091D8
:100D800081018091710190917201880F991FE80F84
:100D9000F91F0580F681E02D0584F685E02D30975A
:100DA00029F0DF91CF911F910F910994DF91CF919D
:100DB0001F910F9108950E94A1040E946106FDCF2A
:100DC000A1E21A2EAA1BBB1BFD010DC0AA1FBB1F4F
:100DD000EE1FFF1FA217B307E407F50720F0A21BC1
:100DE000B30BE40BF50B661F771F881F991F1A942E
:100DF00069F760957095809590959B01AC01BD0158
:100E0000CF010895CF93DF938230910510F482E0F3
:100E100090E0E0918401F091850120E030E0A0E0D5
:100E2000B0E0309739F14081518148175907B8F047
:100E30004817590771F482819381109729F013960E
:100E40009C938E9312972CC090938501809384017C
:100E500027C02115310531F04217530718F0A901B9
:100E6000DB0101C0EF019A01BD01DF010280F381C6
:100E7000E02DD7CF21153105F9F0281B390B24308F
:100E8000310580F48A819B816115710521F0FB0198
:100E90009383828304C09093850180938401FE0133
:100EA000329644C0FE01E20FF31F819391932250CA
:100EB0003109398328833AC020918201309183011E
:100EC000232B41F4209102013091030130938301DF
:100ED00020938201209100013091010121153105FB
:100EE00041F42DB73EB74091040150910501241BF8
:100EF000350BE0918201F0918301E217F307A0F432
:100F00002E1B3F0B2817390778F0AC014E5F5F4F5F
:100F10002417350748F04E0F5F1F5093830140930D
:100F200082018193919302C0E0E0F0E0CF01DF9174
:100F3000CF910895CF93DF93009709F487C0FC0108
:100F4000329713821282C0918401D091850120973B
:100F500081F420813181280F391F80918201909185
:100F600083018217930779F5F0938301E09382015F
:100F70006DC0DE0120E030E0AE17BF0750F41296DE
:100F80004D915C9113979D014115510509F1DA01CD
:100F9000F3CFB383A28340815181840F951F8A17B9
:100FA0009B0771F48D919C911197840F951F029668
:100FB0009183808312968D919C9113979383828362
:100FC0002115310529F4F0938501E09384013EC099
:100FD000D9011396FC93EE9312974D915D91A40F56
:100FE000B51FEA17FB0779F480819181840F951F63
:100FF0000296D90111969C938E93828193811396C8
:101000009C938E931297E0E0F0E08A819B81009799
:1010100019F0FE01EC01F9CFCE0102962881398149
:10102000820F931F20918201309183012817390785
:1010300069F4309729F4109285011092840102C05E
:1010400013821282D0938301C0938201DF91CF91EA
:101050000895FB01DC010D900020E9F71197019044
:101060000D920020E1F70895AEE0B0E0EAE3F8E089
:101070000C94DC0A0D891E8986E08C831A8309830F
:101080008FEF9FE79E838D83AE01475E5F4F6F8931
:10109000788DCE0101960E945608EF81F885E00F09
:1010A000F11F10822E96E4E00C94F80AACE0B0E058
:1010B000ECE5F8E00C94CE0A7C016B018A01FC019E
:1010C00017821682838181FFBDC1CE0101964C013A
:1010D000F7019381F60193FD859193FF81916F0153
:1010E000882309F4ABC1853239F493FD859193FFD0
:1010F00081916F01853229F4B70190E00E943E0A88
:10110000E7CF512C312C20E02032A0F48B3269F053
:1011100030F4803259F0833269F420612CC08D3272
:1011200039F0803339F4216026C02260246023C066
:10113000286021C027FD27C030ED380F3A3078F401
:1011400026FF06C0FAE05F9E300D1124532E13C017
:101150008AE0389E300D1124332E20620CC08E326E
:1011600021F426FD6BC1206406C08C3611F4206882
:1011700002C0883641F4F60193FD859193FF819179
:101180006F018111C1CF982F9F7D9554933028F422
:101190000C5F1F4FFFE3F9830DC0833631F08337B7
:1011A00071F0833509F05BC022C0F801808189832A
:1011B0000E5F1F4F44244394512C540115C0380135
:1011C000F2E06F0E711CF801A080B18026FF03C011
:1011D000652D70E002C06FEF7FEFC5012C870E9484
:1011E000330A2C0183012C852F77222E17C038015A
:1011F000F2E06F0E711CF801A080B18026FF03C0E1
:10120000652D70E002C06FEF7FEFC5012C870E9453
:10121000280A2C012C852068222E830123FC1BC068
:10122000832D90E048165906B0F4B70180E290E0B3
:101230000E943E0A3A94F4CFF50127FC859127FEDF
:1012400081915F01B70190E00E943E0A31103A940B
:10125000F1E04F1A51084114510471F7E5C084368A
:1012600011F0893639F5F80127FF07C060817181D7
:10127000828193810C5F1F4F08C060817181882734
:1012800077FD8095982F0E5F1F4F2F76B22E97FF18
:1012900009C090958095709561957F4F8F4F9F4FB6
:1012A0002068B22E2AE030E0A4010E94700AA82E25
:1012B000A81844C0853729F42F7EB22E2AE030E0EA
:1012C00025C0F22FF97FBF2E8F36C1F018F4883574
:1012D00079F0B4C0803719F0883721F0AFC02F2FD4
:1012E0002061B22EB4FE0DC08B2D8460B82E09C0D3
:1012F00024FF0AC09F2F9660B92E06C028E030E078
:1013000005C020E130E002C020E132E0F801B7FE84
:1013100007C060817181828193810C5F1F4F06C07D
:101320006081718180E090E00E5F1F4FA4010E94F8
:10133000700AA82EA818FB2DFF77BF2EB6FE0BC093
:101340002B2D2E7FA51450F4B4FE0AC0B2FC08C0A9
:101350002B2D2E7E05C07A2C2B2D03C07A2C01C09C
:10136000752C24FF0DC0FE01EA0DF11D8081803334
:1013700011F4297E09C022FF06C07394739404C03F
:10138000822F867809F0739423FD13C020FF06C0D6
:101390005A2C731418F4530C5718732C731468F4E4
:1013A000B70180E290E02C870E943E0A73942C855E
:1013B000F5CF731410F4371801C0312C24FF12C07C
:1013C000B70180E390E02C870E943E0A2C8522FF23
:1013D00017C021FF03C088E590E002C088E790E0D5
:1013E000B7010CC0822F867859F021FD02C080E23F
:1013F00001C08BE227FD8DE2B70190E00E943E0A1A
:10140000A51438F4B70180E390E00E943E0A5A9494
:10141000F7CFAA94F401EA0DF11D8081B70190E0A5
:101420000E943E0AA110F5CF332009F451CEB70136
:1014300080E290E00E943E0A3A94F6CFF70186815E
:10144000978102C08FEF9FEF2C96E2E10C94EA0A9D
:10145000FC010590615070400110D8F7809590957F
:101460008E0F9F1F0895FC01615070400190011084
:10147000D8F7809590958E0F9F1F08950F931F9317
:10148000CF93DF93182F092FEB018B8181FD03C0D0
:101490008FEF9FEF20C082FF10C04E815F812C81B3
:1014A0003D81421753077CF4E881F9819F012F5F4A
:1014B0003F4F39832883108306C0E885F985812F43
:1014C0000995892B29F72E813F812F5F3F4F3F835D
:1014D0002E83812F902FDF91CF911F910F9108952F
:1014E000FA01AA27283051F1203181F1E8946F9355
:1014F0006E7F6E5F7F4F8F4F9F4FAF4FB1E03ED0FB
:10150000B4E03CD0670F781F891F9A1FA11D680F98
:10151000791F8A1F911DA11D6A0F711D811D911DCB
:10152000A11D20D009F468943F912AE0269F112440
:101530003019305D3193DEF6CF010895462F4770A4
:10154000405D4193B3E00FD0C9F7F6CF462F4F70FF
:10155000405D4A3318F0495D31FD4052419302D05D
:10156000A9F7EACFB4E0A695979587957795679503
:10157000BA95C9F700976105710508959B01AC0103
:101580000A2E06945795479537952795BA95C9F72A
:10159000620F731F841F951FA01D08952F923F9205
:1015A0004F925F926F927F928F929F92AF92BF9273
:1015B000CF92DF92EF92FF920F931F93CF93DF931F
:1015C000CDB7DEB7CA1BDB0B0FB6F894DEBF0FBE7C
:1015D000CDBF09942A88398848885F846E847D84C9
:1015E0008C849B84AA84B984C884DF80EE80FD80CB
:1015F0000C811B81AA81B981CE0FD11D0FB6F89441
:0E160000DEBF0FBECDBFED010895F894FFCF01
:10160E0000008601200057206B726F746365003EE8
:10161E0000256400526F6F740054656D70657261C1
:10162E007475726100476C656261004369736E691F
:10163E00656E696500437A756A6E696B202830297C
:10164E003A2000437A756A6E696B202831293A2058
:10165E000057737465637A00476F647A696E613AF6
:10166E0020253032643A253032643A253032640017
:00000001FF
